:02000000A32B30
:0E000600213083120313FD00FD0B07280800B4
:100014000F3083120313FC004730FD00FD0B102842
:0A002400FC0B10280000000008008B
:06002E00000000000800C4
:1000340083160313A01B21288312881323288312F9
:1000440088178316201B2928831208132B28831250
:1000540008178316A01A31288312881233288312B2
:1000640088168316201A3928831208123B28831213
:10007400081658183F280815402808118815172015
:1000840088118316A0194928831288134B288312D8
:1000940088178316201951288312081353288312B2
:1000A40008178316A0185928831288125B28831214
:1000B4008816831620186128831208126328831275
:1000C4000816581867280815682808118815172075
:0E00D4008811581C6F280A207028032008008D
:1000E2007B15FB1F7B280130F300F201F101F001C7
:0800F200FA0DF20CFF300800CA
:1000FA0083120313F801F9011030FC00710DF80D99
:10010A00F90D7408F8027508031C750FF902031833
:10011A0095287408F80775080318750FF90703106E
:0A012A00F00DF10DFC0B8328080016
:08013400FA1FF213003008006D
:0E013C00F201F101F001F801F30100300800BA
:10014A00A0017208031DBA287108F2007008F100B4
:10015A00F001A0157208031DBA287108F200F10116
:10016A00A011201672080319C8282008F302031DDB
:10017A00031CCC280310F21BD028F00DF10DF20D50
:10018A00F30BC028CC280130FC009E20D328023073
:0E019A00FC007120D3280430FC009A200800DD
:0E01A8008312031357088A00560882000800CD
:1001B6008312031358106B088316A0001A205814D4
:0201C60008002F
:1001C80083120313EE0105306E020318F2286E083D
:1001D8006D07840020308000EE0AE7286E086D075E
:1001E80084008001EE036E086D07EF000A30F4000A
:1001F800F5016B08F0006C08F1007D207808F0002C
:100208007908F1003030F0076F088400700880002A
:100218000A30F400F5016B08F0006C08F1007D204D
:100228007008EB007108EC0000307106031D1E29F0
:1002380000307006031D21292329EE03F728080042
:06024800FB15FF30080069
:10024E007B14FB1F3229F201FA1FFF30F200F1007E
:0A025E00F000FA0DF20CFF3008006A
:10026800FB14FB1F3E29FF30F300F200F100F00001
:08027800FA0DF20CFF30080042
:10028000831203137408003A031D5B297508003AB2
:10029000031D5B297608003A031D5B297708003AA5
:1002A000031D5B29FF30F000FF30F1007F30F200CA
:1002B000FF30F300F6298312031377080319EA29A4
:1002C00073080319ED29720876068039FA00F217CF
:1002D000F617A0017208F8007108FC007008FD0014
:1002E0007408FD027508031C750FFC027608031CD8
:1002F000760FF802F801FC01FD01031C86290310AA
:10030000F20CF10CF00CF80C0130A0007708F302AD
:10031000031C90297E302007F3070318F029952944
:100320007E302007F307031CF3291830FA07FD0D70
:10033000FC0DF80DF00DF10DF20DA00D7408F0029A
:100340007508031C750FF1027608031C760FF20284
:10035000760DA004201CAE297D14B9297408F0077D
:1003600075080318750FF10776080318760AF20767
:100370007D10FA031F307A05031D97297B1B7D1C16
:10038000E0290310F00DF10DF20DA00D7408F0023C
:100390007508031C750FF1027608031C760FF20234
:1003A000760D20040139FD070318FC0A0319F80A29
:1003B000031DE029F80CFC0CFD0CF30A0319F029CD
:1003C000FA1FF8137808F2007C08F1007D08F000AD
:1003D0000030F52901302421F52902309E20F5292D
:0E03E00004303421F529083071200000080097
:1003EE00831203137008F8007108F000F101F20196
:1003FE00F301FB01FC019630F300FA01F01F0D2A08
:10040E00F809F009F80A0319F00AFA177008F10052
:0C041E007808F000F801F201A5200800A9
:10042A0083120313FB0173080319522A7208FA0094
:10043A00F2178E30F302F31F552AF309F30A083034
:10044A007302031C382AF300F10D7208F100F2015D
:10045A0008307302031C382AF300F10DF101730806
:10046A00031D0310402A73080319402A0310F20CD3
:10047A00F10CF30B3B2A7B1B711C4A2A031C4A2AE8
:10048A00F10A0319F20AF21B612AFA1F642AF20915
:10049A00F109F10A0319F20A642AF201F101642A44
:1004AA007B14FB1F672AF201FA1F672AFF30F2004A
:1004BA00F100FA0DF20C672A0130FC00692A0030BB
:1004CA00FC00692AFF30FC00FC0803196D2A272169
:0A04DA007108F0007208F10008003C
:1004E40083120313E701E8016208E9006308EA00E4
:1004F40080306306F00080307002031D832A0030D0
:1005040062020318912A0130E7000030E800620813
:10051400003CE9006308031C013EEA01EA026908A1
:10052400EB006A08EC006408ED00E4200630E50006
:100534000030E6006608003C031DA22A6508003C62
:100544000318BD2A65086407F20001306502F00053
:100554000030031C013E6602F10070086407840049
:100564000008F00072088400700880000130E50281
:10057400031CE6039C2A640884002030800067087A
:1005840068040319DB2AE501E601650864078400B1
:100594000008203A031DD22AE50A0319E60AC72AED
:1005A4000130E502031CE6036508640784002D306E
:0405B40080000800BB
:1005B800D4208A110A128000840AD60A0319D70A9D
:0805C800F003031DDC2A08000A
:1005D000FA2A803083120313E2000D2BC030E200B0
:1005E0000D2B9430E2000D2BD430E2000D2B803027
:1005F000E2000D2B831203136208013A0319E92A62
:100600006208023A0319EE2A6208033A0319F12A32
:100610006208043A0319F42AF72A6303F000620817
:10062000F0077008E20070088316A0001A20581026
:10063000E50165086407840000080319272B650895
:10064000640784000008EB00DB20E50A192B58142E
:020650000800A0
:1006520083160313881108110812881208138813CD
:1006620083128811081188130813881208120A20AD
:100672000A200A20881608168815172088110A20D1
:100682008815172088110A208815172088110A203A
:1006920008128815172088110A208815172088113A
:1006A200881288178815172088110A2088130816BF
:1006B20088151720881108128815172088110A201A
:1006C20088151720881108168815172088110A2006
:1006D2000812881517208811881708178816081617
:0C06E2008815172088110A205814080001
:1006EE0083120313E301E4016208F2006208F300CF
:1006FE00720884000008203A031D8A2B63086404E4
:10070E00031D8A2B972B0130E3000030E4007208A2
:10071E0084000008F0007308840070088000F30A5B
:10072E007208F100F20A710884000008003A031DF5
:08073E007F2B6208F0000800A7
:100746009824292301308316A0001A200C30831622
:10075600A0001A2010308316860001308312E200B2
:100766000130E3003D30E400E8220230E2000130CF
:10077600E3004A30E400E8221F30FB007130FC0041
:100786001E30FD00FD0BC52BFC0BC52BFB0BC52B33
:10079600000001308316A0001A20103090008F014F
:1007A6008E0106140630FD00FD0BD72B0000061047
:1007B600061ADE2BDB2B1014061EE22BDF2B101085
:1007C6000F08F100F0010E08F0040030F104700883
:1007D600D9007108DA00F721AE30F4004730F50091
:1007E6006B30F6008430F700402115227008D900DE
:1007F6007108DA007008013EF20000300318013E6D
:100806007107F3007208D9007308DA0080307306A6
:10081600F00080307002031D122C02307202031C9D
:10082600442C8030013AF00080305A067002031DD5
:100836001E2C5908903C031C442C5908E2005A0807
:10084600E3005B30E40072225B30E2007723013084
:100856008316A0001A200130E2000130E3002E309A
:10086600E400E8220130E2000C30E3005B30E400F3
:10087600E8220130E2000F30E3003A30E400E822DB
:100886004F2C01308316A0001A200130E2000130FF
:10089600E3002130E400E8220530FB000F30FC00C5
:1008A600F130FD00FD0B552CFC0B552CFB0B552C8C
:0408B600D22B5C2CB9
:1009300021308400353083120313F0006230D6007A
:080940000430D700DC2208009E
:1008C4004F347534743420346F34663420345234E5
:0A08D40061346E346734653400347B
:1008DE00443469347334743461346E34633465343F
:0808EE0020343D3420340034B5
:0608F60063346D34003490
:1008FC0044346534763465346C346F347034653418
:0A090C00643420344234793400349E
:1009160065346C3465346334743472346F345334F0
:080926006F346D3465340034B8
:02400E004A2F37
:00000001FF
